{
  "_format": "hh-sol-artifact-1",
  "contractName": "AttendanceVerifier",
  "sourceName": "contracts/AttendanceVerifier.sol",
  "abi": [
    {
      "inputs": [
        {
          "internalType": "address",
          "name": "_eventRegistryAddress",
          "type": "address"
        },
        {
          "internalType": "address",
          "name": "_treasuryAddress",
          "type": "address"
        }
      ],
      "stateMutability": "nonpayable",
      "type": "constructor"
    },
    {
      "anonymous": false,
      "inputs": [
        {
          "indexed": true,
          "internalType": "uint256",
          "name": "eventId",
          "type": "uint256"
        },
        {
          "indexed": true,
          "internalType": "address",
          "name": "attendee",
          "type": "address"
        }
      ],
      "name": "AttendanceVerified",
      "type": "event"
    },
    {
      "anonymous": false,
      "inputs": [
        {
          "indexed": true,
          "internalType": "uint256",
          "name": "eventId",
          "type": "uint256"
        },
        {
          "indexed": true,
          "internalType": "address",
          "name": "attendee",
          "type": "address"
        },
        {
          "indexed": false,
          "internalType": "uint256",
          "name": "timestamp",
          "type": "uint256"
        },
        {
          "indexed": false,
          "internalType": "uint256",
          "name": "feePaid",
          "type": "uint256"
        }
      ],
      "name": "CheckIn",
      "type": "event"
    },
    {
      "inputs": [
        {
          "internalType": "uint256",
          "name": "",
          "type": "uint256"
        },
        {
          "internalType": "address",
          "name": "",
          "type": "address"
        }
      ],
      "name": "attendances",
      "outputs": [
        {
          "internalType": "uint256",
          "name": "eventId",
          "type": "uint256"
        },
        {
          "internalType": "address",
          "name": "attendee",
          "type": "address"
        },
        {
          "internalType": "uint256",
          "name": "timestamp",
          "type": "uint256"
        },
        {
          "internalType": "bool",
          "name": "verified",
          "type": "bool"
        }
      ],
      "stateMutability": "view",
      "type": "function"
    },
    {
      "inputs": [
        {
          "internalType": "address",
          "name": "",
          "type": "address"
        },
        {
          "internalType": "uint256",
          "name": "",
          "type": "uint256"
        }
      ],
      "name": "attendeeHistory",
      "outputs": [
        {
          "internalType": "uint256",
          "name": "",
          "type": "uint256"
        }
      ],
      "stateMutability": "view",
      "type": "function"
    },
    {
      "inputs": [
        {
          "internalType": "uint256",
          "name": "_eventId",
          "type": "uint256"
        }
      ],
      "name": "checkIn",
      "outputs": [],
      "stateMutability": "payable",
      "type": "function"
    },
    {
      "inputs": [
        {
          "internalType": "uint256",
          "name": "",
          "type": "uint256"
        },
        {
          "internalType": "uint256",
          "name": "",
          "type": "uint256"
        }
      ],
      "name": "eventAttendees",
      "outputs": [
        {
          "internalType": "address",
          "name": "",
          "type": "address"
        }
      ],
      "stateMutability": "view",
      "type": "function"
    },
    {
      "inputs": [],
      "name": "eventRegistry",
      "outputs": [
        {
          "internalType": "contract EventRegistry",
          "name": "",
          "type": "address"
        }
      ],
      "stateMutability": "view",
      "type": "function"
    },
    {
      "inputs": [
        {
          "internalType": "uint256",
          "name": "_eventId",
          "type": "uint256"
        }
      ],
      "name": "getAttendanceCount",
      "outputs": [
        {
          "internalType": "uint256",
          "name": "",
          "type": "uint256"
        }
      ],
      "stateMutability": "view",
      "type": "function"
    },
    {
      "inputs": [
        {
          "internalType": "address",
          "name": "_attendee",
          "type": "address"
        }
      ],
      "name": "getAttendeeHistory",
      "outputs": [
        {
          "internalType": "uint256[]",
          "name": "",
          "type": "uint256[]"
        }
      ],
      "stateMutability": "view",
      "type": "function"
    },
    {
      "inputs": [
        {
          "internalType": "uint256",
          "name": "_eventId",
          "type": "uint256"
        }
      ],
      "name": "getEventAttendees",
      "outputs": [
        {
          "internalType": "address[]",
          "name": "",
          "type": "address[]"
        }
      ],
      "stateMutability": "view",
      "type": "function"
    },
    {
      "inputs": [],
      "name": "platformFeeBasisPoints",
      "outputs": [
        {
          "internalType": "uint256",
          "name": "",
          "type": "uint256"
        }
      ],
      "stateMutability": "view",
      "type": "function"
    },
    {
      "inputs": [],
      "name": "treasuryAddress",
      "outputs": [
        {
          "internalType": "address",
          "name": "",
          "type": "address"
        }
      ],
      "stateMutability": "view",
      "type": "function"
    },
    {
      "inputs": [
        {
          "internalType": "uint256",
          "name": "_newFeeBasisPoints",
          "type": "uint256"
        }
      ],
      "name": "updatePlatformFee",
      "outputs": [],
      "stateMutability": "nonpayable",
      "type": "function"
    },
    {
      "inputs": [
        {
          "internalType": "uint256",
          "name": "_eventId",
          "type": "uint256"
        },
        {
          "internalType": "address",
          "name": "_attendee",
          "type": "address"
        }
      ],
      "name": "verifyAttendance",
      "outputs": [
        {
          "internalType": "bool",
          "name": "",
          "type": "bool"
        }
      ],
      "stateMutability": "view",
      "type": "function"
    }
  ],
  "bytecode": "0x60806040526032600355348015601457600080fd5b50604051610e25380380610e258339810160408190526031916081565b6001600081905580546001600160a01b039384166001600160a01b0319918216179091556002805492909316911617905560af565b80516001600160a01b0381168114607c57600080fd5b919050565b60008060408385031215609357600080fd5b609a836066565b915060a6602084016066565b90509250929050565b610d67806100be6000396000f3fe6080604052600436106100a75760003560e01c8063acaacad511610064578063acaacad51461020f578063ad395c1414610247578063c58bfb6614610274578063c5f956af1461028a578063e95a644f146102aa578063fb690d59146102bd57600080fd5b80630f1525be146100ac5780631860cf44146100df5780631e7884ee1461010f5780632da210b21461013c57806386549321146101c0578063aa0b5988146101ed575b600080fd5b3480156100b857600080fd5b506100cc6100c73660046109b1565b6102dd565b6040519081526020015b60405180910390f35b3480156100eb57600080fd5b506100ff6100fa3660046109dd565b61030e565b60405190151581526020016100d6565b34801561011b57600080fd5b506100cc61012a366004610a0d565b60009081526005602052604090205490565b34801561014857600080fd5b506101966101573660046109dd565b6004602090815260009283526040808420909152908252902080546001820154600283015460039093015491926001600160a01b039091169160ff1684565b604080519485526001600160a01b03909316602085015291830152151560608201526080016100d6565b3480156101cc57600080fd5b506101e06101db366004610a26565b61033e565b6040516100d69190610a4a565b3480156101f957600080fd5b5061020d610208366004610a0d565b6103aa565b005b34801561021b57600080fd5b5060015461022f906001600160a01b031681565b6040516001600160a01b0390911681526020016100d6565b34801561025357600080fd5b50610267610262366004610a0d565b610459565b6040516100d69190610a8d565b34801561028057600080fd5b506100cc60035481565b34801561029657600080fd5b5060025461022f906001600160a01b031681565b61020d6102b8366004610a0d565b6104c4565b3480156102c957600080fd5b5061022f6102d8366004610ace565b61090b565b600660205281600052604060002081815481106102f957600080fd5b90600052602060002001600091509150505481565b60008281526004602090815260408083206001600160a01b038516845290915290206003015460ff165b92915050565b6001600160a01b03811660009081526006602090815260409182902080548351818402810184019094528084526060939283018282801561039e57602002820191906000526020600020905b81548152602001906001019080831161038a575b50505050509050919050565b6002546001600160a01b031633146104095760405162461bcd60e51b815260206004820152601860248201527f4f6e6c792074726561737572792063616e20757064617465000000000000000060448201526064015b60405180910390fd5b6103e88111156104545760405162461bcd60e51b815260206004820152601660248201527546656520746f6f206869676820286d6178203130252960501b6044820152606401610400565b600355565b60008181526005602090815260409182902080548351818402810184019094528084526060939283018282801561039e57602002820191906000526020600020905b81546001600160a01b0316815260019091019060200180831161049b5750505050509050919050565b6104cc610943565b600154604051630368c42760e51b8152600481018390526000916001600160a01b031690636d1884e090602401600060405180830381865afa158015610516573d6000803e3d6000fd5b505050506040513d6000823e601f3d908101601f1916820160405261053e9190810190610c07565b90508060a001516105875760405162461bcd60e51b81526020600482015260136024820152724576656e74206973206e6f742061637469766560681b6044820152606401610400565b8060c001518160e00151106105ce5760405162461bcd60e51b815260206004820152600d60248201526c115d995b9d081a5cc8199d5b1b609a1b6044820152606401610400565b600082815260046020908152604080832033845290915290206003015460ff16156106305760405162461bcd60e51b815260206004820152601260248201527120b63932b0b23c9031b432b1b5b2b21034b760711b6044820152606401610400565b80608001513410156106845760405162461bcd60e51b815260206004820152601b60248201527f496e73756666696369656e7420617474656e64616e63652066656500000000006044820152606401610400565b604080516080810182528381523360208083018281524284860190815260016060860181815260008a815260048652888120878252865288812097518855935187830180546001600160a01b03929092166001600160a01b031992831617905592516002880155516003909601805496151560ff199097169690961790955587825260058352858220805480870182559083528383200180549091168417905591825260068152928120805492830181558152919091200182905534156108c1576000612710600354346107589190610ce5565b6107629190610cfc565b905060006107708234610d1e565b9050600083602001516001600160a01b03168260405160006040518083038185875af1925050503d80600081146107c3576040519150601f19603f3d011682016040523d82523d6000602084013e6107c8565b606091505b50509050806108195760405162461bcd60e51b815260206004820152601860248201527f4f7267616e697a6572207061796d656e74206661696c656400000000000000006044820152606401610400565b6002546040516000916001600160a01b03169085908381818185875af1925050503d8060008114610866576040519150601f19603f3d011682016040523d82523d6000602084013e61086b565b606091505b50509050806108bc5760405162461bcd60e51b815260206004820152601760248201527f5472656173757279207061796d656e74206661696c65640000000000000000006044820152606401610400565b505050505b60408051428152346020820152339184917f58b5ff600c8f70ee1f1b0b8580a69c78ba78f51913156ca1d798fc4322c386d9910160405180910390a3506109086001600055565b50565b6005602052816000526040600020818154811061092757600080fd5b6000918252602090912001546001600160a01b03169150829050565b6002600054036109955760405162461bcd60e51b815260206004820152601f60248201527f5265656e7472616e637947756172643a207265656e7472616e742063616c6c006044820152606401610400565b6002600055565b6001600160a01b038116811461090857600080fd5b600080604083850312156109c457600080fd5b82356109cf8161099c565b946020939093013593505050565b600080604083850312156109f057600080fd5b823591506020830135610a028161099c565b809150509250929050565b600060208284031215610a1f57600080fd5b5035919050565b600060208284031215610a3857600080fd5b8135610a438161099c565b9392505050565b602080825282518282018190526000918401906040840190835b81811015610a82578351835260209384019390920191600101610a64565b509095945050505050565b602080825282518282018190526000918401906040840190835b81811015610a825783516001600160a01b0316835260209384019390920191600101610aa7565b60008060408385031215610ae157600080fd5b50508035926020909101359150565b634e487b7160e01b600052604160045260246000fd5b604051610100810167ffffffffffffffff81118282101715610b2a57610b2a610af0565b60405290565b604051601f8201601f1916810167ffffffffffffffff81118282101715610b5957610b59610af0565b604052919050565b8051610b6c8161099c565b919050565b600082601f830112610b8257600080fd5b815167ffffffffffffffff811115610b9c57610b9c610af0565b610baf601f8201601f1916602001610b30565b818152846020838601011115610bc457600080fd5b60005b82811015610be357602081860181015183830182015201610bc7565b506000918101602001919091529392505050565b80518015158114610b6c57600080fd5b600060208284031215610c1957600080fd5b815167ffffffffffffffff811115610c3057600080fd5b82016101008185031215610c4357600080fd5b610c4b610b06565b81518152610c5b60208301610b61565b6020820152604082015167ffffffffffffffff811115610c7a57600080fd5b610c8686828501610b71565b6040830152506060828101519082015260808083015190820152610cac60a08301610bf7565b60a082015260c0828101519082015260e091820151918101919091529392505050565b634e487b7160e01b600052601160045260246000fd5b808202811582820484141761033857610338610ccf565b600082610d1957634e487b7160e01b600052601260045260246000fd5b500490565b8181038181111561033857610338610ccf56fea26469706673582212204f871227a71fe63433e3028c48dcd5cf0e7812b7f635a339b8e4981e8bb9385e64736f6c634300081c0033",
  "linkReferences": {},
  "deployedLinkReferences": {}
}