{
  "_format": "hh-sol-artifact-1",
  "contractName": "EventRegistry",
  "sourceName": "contracts/EventRegistry.sol",
  "abi": [
    {
      "inputs": [
        {
          "internalType": "address",
          "name": "_treasuryAddress",
          "type": "address"
        }
      ],
      "stateMutability": "nonpayable",
      "type": "constructor"
    },
    {
      "anonymous": false,
      "inputs": [
        {
          "indexed": true,
          "internalType": "uint256",
          "name": "eventId",
          "type": "uint256"
        },
        {
          "indexed": true,
          "internalType": "address",
          "name": "organizer",
          "type": "address"
        },
        {
          "indexed": false,
          "internalType": "string",
          "name": "metadataHash",
          "type": "string"
        },
        {
          "indexed": false,
          "internalType": "uint256",
          "name": "attendanceFee",
          "type": "uint256"
        },
        {
          "indexed": false,
          "internalType": "uint256",
          "name": "timestamp",
          "type": "uint256"
        }
      ],
      "name": "EventCreated",
      "type": "event"
    },
    {
      "anonymous": false,
      "inputs": [
        {
          "indexed": true,
          "internalType": "uint256",
          "name": "eventId",
          "type": "uint256"
        },
        {
          "indexed": false,
          "internalType": "bool",
          "name": "isActive",
          "type": "bool"
        }
      ],
      "name": "EventUpdated",
      "type": "event"
    },
    {
      "anonymous": false,
      "inputs": [
        {
          "indexed": true,
          "internalType": "address",
          "name": "previousOwner",
          "type": "address"
        },
        {
          "indexed": true,
          "internalType": "address",
          "name": "newOwner",
          "type": "address"
        }
      ],
      "name": "OwnershipTransferred",
      "type": "event"
    },
    {
      "inputs": [
        {
          "internalType": "string",
          "name": "_metadataHash",
          "type": "string"
        },
        {
          "internalType": "uint256",
          "name": "_attendanceFee",
          "type": "uint256"
        },
        {
          "internalType": "uint256",
          "name": "_maxAttendees",
          "type": "uint256"
        }
      ],
      "name": "createEvent",
      "outputs": [
        {
          "internalType": "uint256",
          "name": "",
          "type": "uint256"
        }
      ],
      "stateMutability": "payable",
      "type": "function"
    },
    {
      "inputs": [],
      "name": "eventCreationFee",
      "outputs": [
        {
          "internalType": "uint256",
          "name": "",
          "type": "uint256"
        }
      ],
      "stateMutability": "view",
      "type": "function"
    },
    {
      "inputs": [
        {
          "internalType": "uint256",
          "name": "",
          "type": "uint256"
        }
      ],
      "name": "events",
      "outputs": [
        {
          "internalType": "uint256",
          "name": "eventId",
          "type": "uint256"
        },
        {
          "internalType": "address",
          "name": "organizer",
          "type": "address"
        },
        {
          "internalType": "string",
          "name": "metadataHash",
          "type": "string"
        },
        {
          "internalType": "uint256",
          "name": "createdAt",
          "type": "uint256"
        },
        {
          "internalType": "uint256",
          "name": "attendanceFee",
          "type": "uint256"
        },
        {
          "internalType": "bool",
          "name": "isActive",
          "type": "bool"
        },
        {
          "internalType": "uint256",
          "name": "maxAttendees",
          "type": "uint256"
        },
        {
          "internalType": "uint256",
          "name": "currentAttendees",
          "type": "uint256"
        }
      ],
      "stateMutability": "view",
      "type": "function"
    },
    {
      "inputs": [
        {
          "internalType": "uint256",
          "name": "_eventId",
          "type": "uint256"
        }
      ],
      "name": "getEvent",
      "outputs": [
        {
          "components": [
            {
              "internalType": "uint256",
              "name": "eventId",
              "type": "uint256"
            },
            {
              "internalType": "address",
              "name": "organizer",
              "type": "address"
            },
            {
              "internalType": "string",
              "name": "metadataHash",
              "type": "string"
            },
            {
              "internalType": "uint256",
              "name": "createdAt",
              "type": "uint256"
            },
            {
              "internalType": "uint256",
              "name": "attendanceFee",
              "type": "uint256"
            },
            {
              "internalType": "bool",
              "name": "isActive",
              "type": "bool"
            },
            {
              "internalType": "uint256",
              "name": "maxAttendees",
              "type": "uint256"
            },
            {
              "internalType": "uint256",
              "name": "currentAttendees",
              "type": "uint256"
            }
          ],
          "internalType": "struct EventRegistry.Event",
          "name": "",
          "type": "tuple"
        }
      ],
      "stateMutability": "view",
      "type": "function"
    },
    {
      "inputs": [
        {
          "internalType": "address",
          "name": "_organizer",
          "type": "address"
        }
      ],
      "name": "getOrganizerEvents",
      "outputs": [
        {
          "internalType": "uint256[]",
          "name": "",
          "type": "uint256[]"
        }
      ],
      "stateMutability": "view",
      "type": "function"
    },
    {
      "inputs": [],
      "name": "nextEventId",
      "outputs": [
        {
          "internalType": "uint256",
          "name": "",
          "type": "uint256"
        }
      ],
      "stateMutability": "view",
      "type": "function"
    },
    {
      "inputs": [
        {
          "internalType": "address",
          "name": "",
          "type": "address"
        },
        {
          "internalType": "uint256",
          "name": "",
          "type": "uint256"
        }
      ],
      "name": "organizerEvents",
      "outputs": [
        {
          "internalType": "uint256",
          "name": "",
          "type": "uint256"
        }
      ],
      "stateMutability": "view",
      "type": "function"
    },
    {
      "inputs": [],
      "name": "owner",
      "outputs": [
        {
          "internalType": "address",
          "name": "",
          "type": "address"
        }
      ],
      "stateMutability": "view",
      "type": "function"
    },
    {
      "inputs": [],
      "name": "renounceOwnership",
      "outputs": [],
      "stateMutability": "nonpayable",
      "type": "function"
    },
    {
      "inputs": [
        {
          "internalType": "uint256",
          "name": "_eventId",
          "type": "uint256"
        }
      ],
      "name": "toggleEventStatus",
      "outputs": [],
      "stateMutability": "nonpayable",
      "type": "function"
    },
    {
      "inputs": [
        {
          "internalType": "address",
          "name": "newOwner",
          "type": "address"
        }
      ],
      "name": "transferOwnership",
      "outputs": [],
      "stateMutability": "nonpayable",
      "type": "function"
    },
    {
      "inputs": [],
      "name": "treasuryAddress",
      "outputs": [
        {
          "internalType": "address",
          "name": "",
          "type": "address"
        }
      ],
      "stateMutability": "view",
      "type": "function"
    },
    {
      "inputs": [
        {
          "internalType": "uint256",
          "name": "_newFee",
          "type": "uint256"
        }
      ],
      "name": "updateEventCreationFee",
      "outputs": [],
      "stateMutability": "nonpayable",
      "type": "function"
    },
    {
      "inputs": [
        {
          "internalType": "address",
          "name": "_newTreasury",
          "type": "address"
        }
      ],
      "name": "updateTreasuryAddress",
      "outputs": [],
      "stateMutability": "nonpayable",
      "type": "function"
    }
  ],
  "bytecode": "0x6080604052662386f26fc10000600255600160035534801561002057600080fd5b506040516110e63803806110e683398101604081905261003f916100c1565b61004833610071565b60018055600480546001600160a01b0319166001600160a01b03929092169190911790556100f1565b600080546001600160a01b038381166001600160a01b0319831681178455604051919092169283917f8be0079c531659141344cd1fd0a4f28419497f9722a3daafe3b4186f6b6457e09190a35050565b6000602082840312156100d357600080fd5b81516001600160a01b03811681146100ea57600080fd5b9392505050565b610fe6806101006000396000f3fe6080604052600436106100dd5760003560e01c80639e9580f61161007f578063e13102e911610059578063e13102e914610242578063e4aa47e314610262578063f2fde38b14610282578063ff9f5970146102a257600080fd5b80639e9580f6146101f95780639f9d903a1461020c578063c5f956af1461022257600080fd5b8063715018a6116100bb578063715018a61461016e578063841e4561146101835780638da5cb5b146101a35780638ff62129146101d557600080fd5b80630b791430146100e257806314a7eadf1461011f5780636d1884e014610141575b600080fd5b3480156100ee57600080fd5b506101026100fd366004610b6b565b6102cf565b604051610116989796959493929190610bca565b60405180910390f35b34801561012b57600080fd5b5061013f61013a366004610b6b565b6103a6565b005b34801561014d57600080fd5b5061016161015c366004610b6b565b6103b3565b6040516101169190610c20565b34801561017a57600080fd5b5061013f61055e565b34801561018f57600080fd5b5061013f61019e366004610cb7565b610572565b3480156101af57600080fd5b506000546001600160a01b03165b6040516001600160a01b039091168152602001610116565b3480156101e157600080fd5b506101eb60025481565b604051908152602001610116565b6101eb610207366004610ce8565b61059c565b34801561021857600080fd5b506101eb60035481565b34801561022e57600080fd5b506004546101bd906001600160a01b031681565b34801561024e57600080fd5b5061013f61025d366004610b6b565b610893565b34801561026e57600080fd5b506101eb61027d366004610daf565b610952565b34801561028e57600080fd5b5061013f61029d366004610cb7565b610983565b3480156102ae57600080fd5b506102c26102bd366004610cb7565b6109fc565b6040516101169190610dd9565b60056020526000908152604090208054600182015460028301805492936001600160a01b039092169261030190610e1c565b80601f016020809104026020016040519081016040528092919081815260200182805461032d90610e1c565b801561037a5780601f1061034f5761010080835404028352916020019161037a565b820191906000526020600020905b81548152906001019060200180831161035d57829003601f168201915b50505060038401546004850154600586015460068701546007909701549596929591945060ff16925088565b6103ae610a68565b600255565b6104066040518061010001604052806000815260200160006001600160a01b0316815260200160608152602001600081526020016000815260200160001515815260200160008152602001600081525090565b60035482106104535760405162461bcd60e51b8152602060048201526014602482015273115d995b9d08191bd95cc81b9bdd08195e1a5cdd60621b60448201526064015b60405180910390fd5b6000828152600560209081526040918290208251610100810184528154815260018201546001600160a01b031692810192909252600281018054929391929184019161049e90610e1c565b80601f01602080910402602001604051908101604052809291908181526020018280546104ca90610e1c565b80156105175780601f106104ec57610100808354040283529160200191610517565b820191906000526020600020905b8154815290600101906020018083116104fa57829003601f168201915b50505091835250506003820154602082015260048201546040820152600582015460ff16151560608201526006820154608082015260079091015460a09091015292915050565b610566610a68565b6105706000610ac2565b565b61057a610a68565b600480546001600160a01b0319166001600160a01b0392909216919091179055565b60006105a6610b12565b6002543410156105f85760405162461bcd60e51b815260206004820152601f60248201527f496e73756666696369656e74206576656e74206372656174696f6e2066656500604482015260640161044a565b60008451116106425760405162461bcd60e51b815260206004820152601660248201527513595d1859185d18481a185cda081c995c5d5a5c995960521b604482015260640161044a565b600082116106925760405162461bcd60e51b815260206004820152601960248201527f4d617820617474656e64656573206d757374206265203e203000000000000000604482015260640161044a565b60038054600091826106a383610e56565b9091555060408051610100810182528281523360208083019182528284018a8152426060850152608084018a9052600160a0850181905260c085018a9052600060e0860181905287815260059093529490912083518155915193820180546001600160a01b0319166001600160a01b039095169490941790935591519293509160028201906107329082610ecc565b5060608201516003820155608082015160048083019190915560a083015160058301805460ff191691151591909117905560c083015160068084019190915560e0909301516007909201919091553360009081526020928352604080822080546001810182559083529382209093018490559054915190916001600160a01b03169034908381818185875af1925050503d80600081146107ee576040519150601f19603f3d011682016040523d82523d6000602084013e6107f3565b606091505b505090508061083a5760405162461bcd60e51b8152602060048201526013602482015272119959481d1c985b9cd9995c8819985a5b1959606a1b604482015260640161044a565b336001600160a01b0316827f3e1e16dc53562886fa9ab2acde567c1067c24a0c4daad0e47ab75c7b194a90ed88884260405161087893929190610f8b565b60405180910390a350905061088c60018055565b9392505050565b6000818152600560205260409020600101546001600160a01b031633146108f25760405162461bcd60e51b81526020600482015260136024820152722737ba1032bb32b73a1037b933b0b734bd32b960691b604482015260640161044a565b600081815260056020818152604092839020909101805460ff8082161560ff199092168217909255925192161515825282917fb2bc5d7509f733d56ab7e45b3eacfbec4e497ae2863122195501d98ea897b4da910160405180910390a250565b6006602052816000526040600020818154811061096e57600080fd5b90600052602060002001600091509150505481565b61098b610a68565b6001600160a01b0381166109f05760405162461bcd60e51b815260206004820152602660248201527f4f776e61626c653a206e6577206f776e657220697320746865207a65726f206160448201526564647265737360d01b606482015260840161044a565b6109f981610ac2565b50565b6001600160a01b038116600090815260066020908152604091829020805483518184028101840190945280845260609392830182828015610a5c57602002820191906000526020600020905b815481526020019060010190808311610a48575b50505050509050919050565b6000546001600160a01b031633146105705760405162461bcd60e51b815260206004820181905260248201527f4f776e61626c653a2063616c6c6572206973206e6f7420746865206f776e6572604482015260640161044a565b600080546001600160a01b038381166001600160a01b0319831681178455604051919092169283917f8be0079c531659141344cd1fd0a4f28419497f9722a3daafe3b4186f6b6457e09190a35050565b600260015403610b645760405162461bcd60e51b815260206004820152601f60248201527f5265656e7472616e637947756172643a207265656e7472616e742063616c6c00604482015260640161044a565b6002600155565b600060208284031215610b7d57600080fd5b5035919050565b6000815180845260005b81811015610baa57602081850181015186830182015201610b8e565b506000602082860101526020601f19601f83011685010191505092915050565b8881526001600160a01b038816602082015261010060408201819052600090610bf590830189610b84565b606083019790975250608081019490945291151560a084015260c083015260e0909101529392505050565b602081528151602082015260018060a01b036020830151166040820152600060408301516101006060840152610c5a610120840182610b84565b905060608401516080840152608084015160a084015260a0840151151560c084015260c084015160e084015260e08401516101008401528091505092915050565b80356001600160a01b0381168114610cb257600080fd5b919050565b600060208284031215610cc957600080fd5b61088c82610c9b565b634e487b7160e01b600052604160045260246000fd5b600080600060608486031215610cfd57600080fd5b833567ffffffffffffffff811115610d1457600080fd5b8401601f81018613610d2557600080fd5b803567ffffffffffffffff811115610d3f57610d3f610cd2565b604051601f8201601f19908116603f0116810167ffffffffffffffff81118282101715610d6e57610d6e610cd2565b604052818152828201602001881015610d8657600080fd5b816020840160208301376000602092820183015297908601359650604090950135949350505050565b60008060408385031215610dc257600080fd5b610dcb83610c9b565b946020939093013593505050565b602080825282518282018190526000918401906040840190835b81811015610e11578351835260209384019390920191600101610df3565b509095945050505050565b600181811c90821680610e3057607f821691505b602082108103610e5057634e487b7160e01b600052602260045260246000fd5b50919050565b600060018201610e7657634e487b7160e01b600052601160045260246000fd5b5060010190565b601f821115610ec757806000526020600020601f840160051c81016020851015610ea45750805b601f840160051c820191505b81811015610ec45760008155600101610eb0565b50505b505050565b815167ffffffffffffffff811115610ee657610ee6610cd2565b610efa81610ef48454610e1c565b84610e7d565b6020601f821160018114610f2e5760008315610f165750848201515b600019600385901b1c1916600184901b178455610ec4565b600084815260208120601f198516915b82811015610f5e5787850151825560209485019460019092019101610f3e565b5084821015610f7c5786840151600019600387901b60f8161c191681555b50505050600190811b01905550565b606081526000610f9e6060830186610b84565b6020830194909452506040015291905056fea26469706673582212204b75160e70ecc2c3f52a0c8161d22976f35854a2651146b956244714ddca5ce064736f6c634300081c0033",
  "linkReferences": {},
  "deployedLinkReferences": {}
}